:100000000C941B010C944C010C944C010C944C016D
:100010000C944C010C944C010C944C010C944C012C
:100020000C944C010C944C010C944C010C944C011C
:100030000C944C010C944C010C944C010C944C010C
:100040000C944C010C944C010C944C010C944C01FC
:100050000C944C010C944C010C944C010C94E60D46
:100060000C944C010C945A0E0C94300E0C944C01D0
:100070000C944C010C944C010C944C010C944C01CC
:100080000C944C010C944C010C944C010C944C01BC
:100090000C944C010C944C010C944C010C944C01AC
:1000A0000C944C010C944C010C944C010C944C019C
:1000B0000C944C010C944C010C944C010C944C018C
:1000C0000C944C010C944C010C944C010C944C017C
:1000D0000C944C010C944C010C944C010C944C016C
:1000E0000C944C010C94D4010C947E010C94ED0200
:1000F0000C94CA010C94A1010C94D0010C94AA0197
:100100000C945A020C94C2010C9468020C94A40141
:100110000C944B110C940A020C94BC010C949501A4
:100120000C949D010C94B8010C94A0020C949901BC
:100130000C9483010C9446020C9437020C94C60173
:100140000C94B4010C94AE0100002200250028009C
:100150002B002E00310034000201000005010801CF
:100160000B0105050505070508080808020202023B
:100170000A0A080804040404010101010101010143
:100180000303030303030303040707070C0C0C0C0E
:100190000C0C0C0C020202020606060606060606F7
:1001A0000B0B0B0B0B0B0B0B010210202008081084
:1001B00020401020408002010201080402010102D7
:1001C00004081020408080402010080402018004B0
:1001D000020180402010080402010804020101020B
:1001E0000408102040800102040810204080000014
:1001F0000A0B02090C0D0E080703040100000000A1
:1002000000000000000000000000000000000000EE
:1002100000000000000000000000121110000000AB
:1002200000000000000000000000000000000000CE
:10023000000000004B1111241FBECFEFDFEFDEBF27
:10024000CDBF00E00CBF14E0A0E0B2E0ECECF5E2C2
:1002500000E00BBF02C007900D92A234B107D9F79E
:1002600027E0A2E4B4E001C01D92AA3FB207E1F783
:1002700011E0CBE1D1E000E006C021970109802F19
:10028000FE010E947811CA31D10780E00807A9F762
:100290000E94900E0C94E4120C940000282F30E081
:1002A000F901E251FE4F9491F901E855FE4F449156
:1002B0002E593E4FF9012491222309F435C0992388
:1002C00011F191509231F8F4E92FF0E08827E459C8
:1002D000FE4F8F4F0C9478119D01A1017E01950175
:1002E00099018301A401AA01AE01B401B801BC01C6
:1002F000C201C6018301CA01D001D40180918000EE
:100300008F7780938000E22FF0E0EE0FFF1FE85B15
:10031000FE4FA591B4918FB7F894EC91611148C04C
:1003200040954E234C938FBF0895809180008F7D20
:10033000E8CF80918000877FE4CF84B58F7784BD3C
:10034000E2CF84B58F7DFBCF8091B0008F77809313
:10035000B000D9CF8091B0008F7DF9CF809190000F
:100360008F7780939000CFCF809190008F7DF9CFD1
:1003700080919000877FF5CF8091A0008F77809348
:10038000A000C1CF8091A0008F7DF9CF8091A00007
:10039000877FF5CF809120018F7780932001B3CFA5
:1003A000809120018F7DF9CF80912001877FF5CF4B
:1003B0004E2BB8CF8230910538F0880F991F880FE7
:1003C000991F05970197F1F708953FB7F894809129
:1003D000F2079091F307A091F407B091F50726B5C5
:1003E000A89B05C02F3F19F00196A11DB11D3FBF6D
:1003F000BA2FA92F982F8827BC01CD01620F711D3C
:10040000811D911D42E0660F771F881F991F4A9535
:10041000D1F70895AF92BF92CF92DF92EF92FF9201
:100420000F931F93CF93DF936C017B018B01040F1C
:10043000151FEB015E01AE18BF08C017D10759F0B8
:100440006991D601ED91FC910190F081E02DC601FA
:100450001995892B79F7C501DF91CF911F910F91E4
:10046000FF90EF90DF90CF90BF90AF900895FC0188
:10047000538D448D252F30E0842F90E0821B930B09
:10048000541710F0CF96089501970895FC01918DAF
:10049000828D981761F0A28DAE0FBF2FB11D5D96B2
:1004A0008C91928D9F5F9F73928F90E008958FEF54
:1004B0009FEF0895FC01918D828D981731F0828D08
:1004C000E80FF11D858D90E008958FEF9FEF08955F
:1004D000FC01918D228D892F90E0805C9F4F821BC3
:1004E00091098F739927089587E397E00E94680226
:1004F00021E0892B09F420E0822F0895FC01A48DCE
:10050000A80FB92FB11DA35ABF4F2C91848D90E035
:1005100001968F739927848FA689B7892C93A08918
:10052000B1898C91837080648C93938D848D9813A2
:1005300006C00288F389E02D80818F7D8083089535
:10054000EF92FF920F931F93CF93DF93EC0181E023
:10055000888F9B8D8C8D98131AC0E889F9898081CA
:1005600085FF15C09FB7F894EE89FF896083E889FD
:10057000F98980818370806480839FBF81E090E0EF
:10058000DF91CF911F910F91FF90EF900895F62E7C
:100590000B8D10E00F5F1F4F0F731127E02E8C8D16
:1005A0008E110CC00FB607FCFACFE889F98980815B
:1005B00085FFF5CFCE010E947E02F1CFEB8DEC0FCF
:1005C000FD2FF11DE35AFF4FF0829FB7F8940B8F78
:1005D000EA89FB8980818062CFCFCF93DF93EC01E2
:1005E000888D8823B9F0AA89BB89E889F9898C911B
:1005F00085FD03C0808186FD0DC00FB607FCF7CFD7
:100600008C9185FFF2CF808185FFEDCFCE010E94D6
:100610007E02E9CFDF91CF91089580E090E0892BB1
:1006200029F00E94740281110E94000080E090E095
:10063000892B49F080E090E0892B29F00E9400008E
:1006400081110E94000080E090E0892B49F080E059
:1006500090E0892B29F00E94000081110E94000087
:1006600080E090E0892B49F080E090E0892B29F030
:100670000E94000081110C940000089582309105C1
:1006800058F4880F991F880F991FFC01EA5FFB4FF0
:10069000828193810F9719F090E080E0089581E0C6
:1006A00090E0089520914504209530E0F901EA5F3B
:1006B000FC4F908190952A5F3D4FD9018C914091DC
:1006C00043045091440442505109E5E4F4E031966A
:1006D0009F01255434402417350770F42081922758
:1006E000292F30E0D901AA5FBC4F9C9198272A5F3F
:1006F0003D4FD9018C91EBCF089523E030E030934A
:10070000440420934304E5E4F4E0909124079083AB
:1007100080588183628308950F931F93582F5770D9
:1007200001E010E020E030E004C0000F111F221FA4
:10073000331F5A95D2F723E0969587952A95E1F7CE
:100740009927E0912E07F0912F07662321F0E09181
:100750003407F0913507E80FF91F8081442329F011
:10076000082B00831F910F91089500950823F9CF5E
:100770002F923F924F925F926F927F928F929F92B1
:10078000AF92BF92CF92DF92EF92FF920F931F939F
:10079000CF93DF93CDB7DEB7C354D1090FB6F8942A
:1007A000DEBF0FBECDBF10E000E0F801EE0FFF1F6F
:1007B000EC54F94F0190F081E02D309749F041E081
:1007C0008081811101C040E060E0C8010E948C037B
:1007D0000F5F1F4F0833110541F7E0902507F09098
:1007E000260704E716E019AF08AF8701005C1F4F2A
:1007F000F70124E736E0D9018D919D919D01009785
:1008000029F0DC018D919C91918380833296E017D1
:10081000F10789F7D12CC12CF601EE0FFF1FEC5F19
:10082000F94F0190F081E02D309749F041E080814F
:10083000811101C040E061E0C6010E948C03BFEF5E
:10084000CB1ADB0AE8E3CE16D10431F744EC55E0CD
:10085000E0913107F09132079F01205C3F4FDA01B0
:100860008D919D91AD01009729F0DC018D919C91B6
:100870009183808332962E173F0789F7ECE9F5E0E4
:10088000FBAFEAAFF80108E6E00EF11C2CE935E019
:10089000D9018D919D919D01009729F0DC018D91E9
:1008A0009C91918380833296EE15FF0589F7E4E7EA
:1008B000F5E0FDAFECAFE0912807F09129079F012B
:1008C000205B3F4F04E715E0D8018D919D918D018C
:1008D000009749F0DC014D915D916D917C914083D1
:1008E00051836283738334962E173F0769F7ECE4D4
:1008F000F5E0FFAFEEAFE0912B07F0912C079F01E1
:1009000020563F4F8CE495E0DC01CD90DD90CD0189
:10091000C114D104F1F0D601EC901196FC9011971E
:1009200012960C91129713961C91139714967C9122
:10093000149715966C91159716965C9116971796C5
:100940004C91E082F1820283138374836583568322
:10095000478338962E173F07B9F610924404109239
:10096000430480914A0590914B05DC01ED91FC9187
:100970000084F185E02D1995892B09F483C08091BD
:100980004A0590914B05DC01ED91FC910084F185C5
:10099000E02D19952091430430914404A0914A051B
:1009A000B0914B05ED91FC9111970084F185E02DFC
:1009B0002817390768F4CD01199590934404809362
:1009C000430480914705909148050E94DA01D7CFF2
:1009D000CD011995813091400CF054C080914A05A9
:1009E00090914B05DC01ED91FC910084F185E02DA7
:1009F000199506970CF446C045E4842E44E0942EE5
:100A00008401E0904304F0904404C801855494406C
:100A10008E159F0578F480914A0590914B05DC0175
:100A2000ED91FC910284F385E02D1995F8018193F5
:100A30008F01E7CF109146048FEB810F853080F056
:100A40000E94520397012B5B3B4FF9013297408183
:100A500021503109D9012C91342F2817390791F4ED
:100A60009091450480912407981709F4CDC0809196
:100A70004A0590914B05DC01ED91FC910680F781D0
:100A8000E02D199540912E0750912F0730E020E07E
:100A9000F901EE0FFF1FEC54F94F0190F081E02DAA
:100AA000309799F0D90183E0B695A7958A95E1F73B
:100AB000A40FB51F8C9190E0622F677002C09595CE
:100AC00087956A95E2F7817080832F5F3F4F2833C7
:100AD0003105F1F68091250790912607BC01605CF5
:100AE0007F4FDC01E8ADF9AD21913191F9AFE8AF6D
:100AF0002115310531F04D915C911197F901518328
:100B0000408312966A177B0769F7FB0188599F4F4C
:100B1000AAADBBAD4D915D91BBAFAAAF41155105DB
:100B200029F020813181DA012D933C9332968E1782
:100B30009F0771F7E0912807F0912907CF01805BAB
:100B40009F4FACADBDAD2D913D91BDAFACAF21156B
:100B5000310551F04081518162817381D9014D93FA
:100B60005D936D937C93139734968E179F0749F787
:100B7000E0912B07F0912C07CF0180569F4FAEAD2F
:100B8000BFADED90FD90BFAFAEAFE114F104F1F059
:100B90000081118172816381548145813681278171
:100BA000D7010C9311961C93119712967C93129770
:100BB00013966C93139714965C93149715964C9315
:100BC000159716963C93169717962C9338968E1772
:100BD0009F07A9F6CD5BDF4F0FB6F894DEBF0FBEBF
:100BE000CDBFDF91CF911F910F91FF90EF90DF90DC
:100BF000CF90BF90AF909F908F907F906F905F90BD
:100C00004F903F902F900895B2E0EB1AF108F092C8
:100C10004404E09243048091470490914804382EA4
:100C2000292E6090490470904A0476246724762423
:100C3000D090490420914B0430E01F3009F48AC55C
:100C4000A0F5133009F480C158F4113009F4F5C34C
:100C5000123009F484C461E070E0812F90E022C07A
:100C6000153009F457C508F40BC51630A1F72091CB
:100C7000270780912A0790E0880F991FE22FF0E064
:100C80008E0F9F1F40912D0704E0409FA00111246B
:100C9000480F591F2416350608F449C062E070E079
:100CA00086E090E00E947D034FC0123409F408C72B
:100CB00098F4103109F462C2113469F684E090E0CE
:100CC0009093440480934304109346041092470485
:100CD00082E08093480438C0143409F45FC608F4F5
:100CE000DDC5153409F0B7CF8D3AFEED9F0709F049
:100CF0005AC71092420485E4809346048EE780939D
:100D0000470481E2E0E2F4E0DE01119601900D92E9
:100D10008A95E1F7FE013196A8E4B4E081919D0146
:100D200025543440882309F44CC78D93F7CF2E16F1
:100D30003F06D8F4220C331CE0912507F0912607DA
:100D4000E20DF31D7182608280914304909144040E
:100D500002968130914008F45AC58091460464E0BF
:100D600070E090E00E947D0352C528163906F0F528
:100D7000A30170E060E0809128079091290720FC92
:100D80001CC091012E1B3F0BF901EE0FFF1FEC7FE2
:100D9000F370E80FF91F80819181A281B381AA27A6
:100DA000BB27BA0155274427842B952BA62BB72B9D
:100DB00080839183A283B383C7CFE095F095E20D42
:100DC000F31DEE0FFF1FEC7FF370E80FF91F60803B
:100DD0007180828093806624772446295729682968
:100DE00079294083518362837383AECF910123704D
:100DF00033274301B12CA12CC12CD12C7601E091D9
:100E00002B07F0912C072115310549F5281A390ACD
:100E1000220C331C38EF232237E03322E20DF31D7E
:100E20005080618072801381B481A581940140E07B
:100E300050E060E070E080E090E000E30E9480110C
:100E400025292083632A6182742A7282152B1383D9
:100E5000B62BB483A72BA5838683978375CF2130C8
:100E6000310541F56FEF261A360A281A390A220C85
:100E7000331C88EF282287E03822E20DF31D5080D2
:100E8000618072801381B681A7819401A501B601AA
:100E9000C70100E20E948011522A5082632A6182B7
:100EA000742A7282152B1383648375838B2B86833C
:100EB0009A2BD3CF2230310529F5A2E02A0E311C1E
:100EC000281A390A220C331CB8EF2B22B7E03B2238
:100ED000E20DF31D5080618074801581B681A78179
:100EE0009401A501B601C70100E10E948011522AB8
:100EF0005082632A618242835383762A7482172B3D
:100F00001583D4CF03E0200E311C281A390A220C95
:100F1000331C18EF212217E03122E20DF31D52811C
:100F200043813481258196818781808291825A29EB
:100F300052834B2943833C2934832D2925839E29C1
:100F400096838F29878300CFC301019763E070E008
:100F50008D379105C8F46101C60CD71C4091270755
:100F6000E0912A07F0E0EE0FFF1FE40FF11D8091E2
:100F70002D0724E0829FC00111248E0F9F1FC816E9
:100F8000D90628F062E070E083E090E08BCE660C3A
:100F9000771CC30103969093440480934304A5E413
:100FA000B4E011969D01255434402817390710F4F8
:100FB0001C92F7CF93E090934604835080934704AC
:100FC000E0902B07F0902C07A0902807B0902907FD
:100FD000A0912507B0912607BAA7A9A7A42FB0E032
:100FE000BBABAAAB83E090E02C014E1A5F0A3D0137
:100FF000609470942C143D0409F4A6CEAAA9BBA950
:101000002A163B0660F49101220F331FA9A5BAA549
:101010002A0F3B1FD9018C9111963C911AC02E16B4
:101020003F0670F520FC22C0C101AAA9BBA98A1BFA
:101030009B0B880F991F8C7F93708A0D9B1DDC0181
:101040004D915D916D917C91AB0166277727842F3F
:10105000352FD40113963C93139714968C93B2E0DA
:101060008B0E911C0FEF201A300AC4CF9301220D72
:10107000331D220F331F2C7F33702A0D3B1DCACF27
:101080008101037011270115110521F581010E1B46
:101090001F0B000F111F087F17700E0D1F1DD801A9
:1010A0002C9111963C91119712964C911297139690
:1010B0005C91139714966C91149715967C911597E3
:1010C00016968C91169717969C9100E30E949B119F
:1010D000822FBFCF0130110511F50E1B1F0B020D22
:1010E000131D000F111F087F17700E0D1F1DD80153
:1010F0002C9111963C91119712964C911297139640
:101100005C91139714966C91149715967C91159792
:1011100016968C91169717969C9100E2D7CF0230C5
:10112000110511F50E1B1F0B020D131D000F111FD2
:10113000087F17700E0D1F1DD8012C9111963C9140
:10114000119712964C91129713965C9113971496DF
:101150006C91149715967C91159716968C9116970D
:1011600017969C9100E1B2CF9201220D331D220F00
:10117000331F287F37702E0D3F1D4CCFC3010197C1
:101180008B37910530F4C301880F991F2817390751
:1011900029F063E070E080E190E084CDD101A60DFC
:1011A000B71DBDABACAB8091270740902A07512CEF
:1011B000440C551CA82EB12C4A0C5B1C20912D0709
:1011C000B4E02B9F90011124240D351DECA9FDA93D
:1011D000E217F30718F062E070E0DDCF26E030E0C0
:1011E0003093440420934304109346043092470400
:1011F000209248041092490460924A0460902B07A0
:1012000070902C07C0902807D0902907DFAACEAA9B
:1012100040912507509126079101220F331F7A0133
:10122000E20EF31EFBAAEAAAD101A419B509C50171
:1012300080959095FC01E40DF51D2296FFAFEEAF71
:1012400022976201CA18DB082496DFAECEAE24973F
:10125000ECA8FDA82E143F0409F4D9C2F40147817B
:101260008085542F482F2A143B0488F4EAA9FBA94F
:1012700051834083EAA9FBA93296FBABEAAB1196F6
:10128000FFEF2F1A3F0A02E0800E911CE1CF2414D9
:101290003504C8F570E060E020FC20C02496EEAD77
:1012A000FFAD2497EA0FFB1FEE0FFF1FEC7FF370DB
:1012B000CEA8DFA8EC0DFD1D0081118122813381B4
:1012C00022273327BA0155274427402B512B622B65
:1012D000732B4083518362837383CCCF2296EEAD10
:1012E000FFAD2297EA0FFB1FEE0FFF1FEC7FF3709D
:1012F000EEA8FFA8EE0DFF1D008111812281338130
:1013000000271127E2CFC101837099276A01F12CD0
:10131000E12C00E010E09801C9A6DAA6EBA6FCA635
:101320000DA71EA72FA738ABFD01009741F5EE0FC3
:10133000FF1FE87FF770E60DF71DD080D9AAC180A6
:10134000D280E380F480158129A53AA540E050E0E1
:1013500060E070E080E090E000E30E94801109A965
:10136000202B20833C2931834D2942835E295383DE
:10137000F62AF482172B1583868397837BCF8130DF
:10138000910541F53196EE0FFF1FE87FF770E60DEE
:10139000F71D108119ABC180D280E380F6801781E0
:1013A00029A53AA540E050E060E070E080E090E0E0
:1013B00000E20E94801109A9202B20833C2931835F
:1013C0004D294283E52AE382648375838F298683CE
:1013D000912BD3CF029729F53296EE0FFF1FE87FAE
:1013E000F770E60DF71D108119ABC180D480E58040
:1013F000F680178129A53AA540E050E060E070E052
:1014000080E090E000E10E94801109A9202B208358
:101410003C29318342835383D62AD482E72AE5824A
:10142000D5CF3396EE0FFF1FE87FF770E60DF71D5F
:1014300019A510832AA521831DCFC301019763E05D
:1014400070E0803D974068F520913007C101860D1E
:10145000971D62E070E02817190618F1C30113E028
:10146000969587951A95E1F79C012D5F3F4F309334
:10147000440420934304930127703327232B29F03E
:101480000496909344048093430480914304909184
:101490004404E5E4F4E0813021E0920728F064E0C0
:1014A00070E081E090E0FECB31969F0125543440FE
:1014B0002817390710F41082F7CF91E09093460473
:1014C00083508093470400912E0710912F0770E0FE
:1014D00060E020E0C12CD12C7601C394D701C60175
:1014E000022E04C0880F991FAA1FBB1F0A94D2F7AF
:1014F00089A79AA7ABA7BCA7FB0133E0F695E795B0
:101500003A95E1F7E85BFB4F3081A101A3E05695E6
:101510004795AA95E1F74F715527400F511FDA0102
:101520004C9150E0B22DB77002C055954795BA95D1
:10153000E2F789A540FF0FC0832B80832F5F2830FF
:1015400009F420E0EFEF2E1A3E0A6F5F7F4F661618
:10155000770621F6F9CB809538233083EFCFC3018E
:10156000019763E070E0803D974068F52091360771
:10157000C101860D971D62E070E02817190618F169
:10158000C30123E0969587952A95E1F79C012D5F8D
:101590003F4F309344042093430493012770332733
:1015A000232B29F004969093440480934304809164
:1015B000430490914404E5E4F4E0813001E09007B5
:1015C00028F064E070E082E090E06CCB31969F01FF
:1015D000255434402817390710F41082F7CF92E0D1
:1015E0009093460483508093470460913407709130
:1015F000350750E040E010E0C12CD12C7601C394B7
:10160000D701C601012E04C0880F991FAA1FBB1F56
:101610000A94D2F789A79AA7ABA7BCA7FA01A3E0BF
:10162000F695E795AA95E1F7E85BFB4F00819101FC
:10163000B3E036952795BA95E1F7260F372F311D80
:10164000D9012C9130E0B22DB77002C035952795A5
:10165000BA95E2F789A520FF0FC0802B80831F5F1A
:10166000183009F410E0EFEF2E1A3E0A4F5F5F4F7B
:101670006416750629F668CB809508230083EFCFA2
:10168000C301019763E070E08D37910550F420911C
:101690003307C101860D971D2817190628F462E04B
:1016A00070E084E090E0FECAC301880F991F0396A2
:1016B0009093440480934304E5E4F4E031969F0161
:1016C000255434402817390710F41082F7CF94E0DE
:1016D00090934604835080934704220C331CE0917E
:1016E0003107F0913207E20DF31D01E0601A710835
:1016F00012E0810E911C2FEF6216720609F424CBC2
:10170000808191813296D40111969C931197129603
:101710008C93EBCF6114BFEF7B0629F063E070E0A0
:101720006114710449F4809130078150990B82153E
:10173000930528F462E070E085E090E0B3CA41E0F0
:101740006114EFEF7E0609F040E060E0C1010E9405
:101750008C03FACAA30193E0569547959A95E1F751
:10176000842FB30167707727672B11F081E0840F16
:10177000A30141505109403B574018F4821713060A
:1017800029F063E070E08FE090E08CCA2091300790
:10179000C101860D971D2817190618F462E070E044
:1017A000F2CF86E090E090934404809343048FE06E
:1017B0008093460430924704209248047092490472
:1017C00060924A0410E000E0F12CF801B3E0F695D5
:1017D000E795BA95E1F7EB5BFB4F478150E00F2CA3
:1017E00002C0559547950A94E2F7417060E0C10147
:1017F000800F911F0E948C03F39488E0C82EFC1088
:1018000001C0F12C0F5F1F4F60167106F1F60091B9
:10181000430410914404780122E0E20EF11CF0929E
:101820004404E09243040E945203F801EB5BFB4F37
:10183000908381838091490587FD09C061E00E9402
:101840004E0180914505909146050E94DA018091F4
:101850004A0590914B05DC01ED91FC910280F381EA
:10186000E02DA70165E474E0199580914A059091F7
:101870004B05DC01ED91FC910680F781E02D199577
:1018800080914505909146050E94DA0180914905B5
:1018900087FDF8C860E00E944E01F4C802E02016FF
:1018A000310408F070C012E06116710408F06BC0DA
:1018B0006214730408F467C08101000F111F000F48
:1018C000111F0A5F1B4F4101A0E5AA2EA4E0BA2E0A
:1018D00090E080E0D80112962D913C91D12CC12C42
:1018E0002F30310519F4CC24C394D12C7C01EC0C9D
:1018F000FD1CA701455F5F4F4130514008F041C0DA
:10190000F801608171812F30310511F060E070E0E5
:10191000A601C5010E94DB12AC0CBD1C0C5F1F4F61
:10192000C701140194012F5F3F4F6216730628F51B
:10193000C7010796909344048093430483E4809303
:1019400046048EE78093470410924804209249048D
:101950008091E0079091E1072091E2073091E30741
:1019600030934A0420934B0490934C0480934D048D
:10197000F0924E04E0924F04E7C988248394912C9E
:10198000A9CF7C01D5CF83E090E09093440480936D
:10199000430483E48093460481E829C0F5E12F16CF
:1019A0003104E0F48E010F5F1F4F2801F801D12CA4
:1019B000C12C12E0810E911C2C143D04D9F0D401ED
:1019C00012968C91129713969C91892798278927B4
:1019D00081939193BFEFCB1ADB0AEBCF83E090E0CA
:1019E00090934404809343041093460482E88093C8
:1019F0004704AAC9B12CA12C19A6712C612C0BE0AB
:101A000010E0CA14DB04C1F1F201E190F1902F0162
:101A1000F2E0EF16F10440F083E090E0909344048C
:101A20008093430484E4B6CFC7010E943E034C0177
:101A30001C01200E311E21E022163206E8F4F701C7
:101A4000EE0FFF1FEE0FFF1FEA5FFB4F60817181FA
:101A5000828193810F9711F060E070E0A401C801CA
:101A60008B5B9B4F0E94DB12680C791C3FEFA31A23
:101A7000B30AE9A68101C5CF10934404009343043F
:101A800084E4809346048EE78093470410924804D0
:101A9000C9A4C09249048091E0079091E107209188
:101AA000E2073091E30730934A0420934B0490936C
:101AB0004C0480934D0470924E0460924F0444C9CC
:101AC00002E02016310450F480914A0490914B04B6
:101AD0009827892798278A3F910540F083E090E076
:101AE000909344048093430482E454CF8101000F17
:101AF000111F000F111FF801EA5FFB4FE280F38016
:101B000080914204813081F0F801EA5FFB4F00814F
:101B10001181D11029C0BFE0EB16F104C9F5F8011D
:101B200081818D7F818334C020E1E216F10461F36D
:101B3000C1010E943E039C0136952795FC01EB5B99
:101B4000FB4FA5E4B4E03197CD0185549440821752
:101B50009307D0F617968C911797978117969C93B9
:101B6000179787831196EFCFC1010E943E033FE094
:101B7000E316F10469F4AC016CE474E0C8010E945E
:101B8000DB12D80111968C911197826011968C937B
:101B900083E090E0909344048093430482E4809334
:101BA00046048EE724CF8E3D9D4A21F481E0809348
:101BB0004204A1C883E090E09093440480934304DE
:101BC0009AC83093440420934304BEC81F920F92D6
:101BD0000FB60F9211242F933F938F939F93AF9340
:101BE000BF938091EE079091EF07A091F007B0911D
:101BF000F1073091ED0723E0230F2D3758F50196BB
:101C0000A11DB11D2093ED078093EE079093EF0780
:101C1000A093F007B093F1078091F2079091F3073A
:101C2000A091F407B091F5070196A11DB11D809315
:101C3000F2079093F307A093F407B093F507BF91D1
:101C4000AF919F918F913F912F910F900FBE0F9069
:101C50001F90189526E8230F0296A11DB11DD2CF23
:101C60001F920F920FB60F9211240BB60F922F9363
:101C70003F934F935F936F937F938F939F93AF9314
:101C8000BF93EF93FF9387E397E00E947E02FF915B
:101C9000EF91BF91AF919F918F917F916F915F91E4
:101CA0004F913F912F910F900BBE0F900FBE0F9051
:101CB0001F9018951F920F920FB60F9211240BB61A
:101CC0000F922F938F939F93EF93FF93E09147078A
:101CD000F09148078081E0914D07F0914E0782FD19
:101CE0001DC09081809150078F5F8F7320915107A5
:101CF000821741F0E0915007F0E0E95CF84F958FD2
:101D000080935007FF91EF919F918F912F910F90AA
:101D10000BBE0F900FBE0F901F9018958081F2CFD1
:101D2000789484B5826084BD84B5816084BD85B5B6
:101D3000826085BD85B5816085BD80916E008160C2
:101D400080936E0010928100809181008260809368
:101D5000810080918100816080938100809180006A
:101D60008160809380008091B10084608093B10095
:101D70008091B00081608093B0008091910082607A
:101D80008093910080919100816080939100809177
:101D900090008160809390008091A1008260809388
:101DA000A1008091A10081608093A1008091A0009A
:101DB00081608093A0008091210182608093210145
:101DC00080912101816080932101809120018160B7
:101DD0008093200180917A00846080937A008091C2
:101DE0007A00826080937A0080917A00816080938B
:101DF0007A0080917A00806880937A001092C10006
:101E00001092D4071092D607E0914707F091480747
:101E100082E08083E0914307F09144071082E091D3
:101E20004507F091460780E1808310924F07E091CB
:101E30004B07F0914C0786E08083E0914907F091D1
:101E40004A07808180618083E0914907F0914A07C9
:101E5000808188608083E0914907F0914A07808102
:101E600080688083E0914907F0914A0780818F7DE7
:101E7000808387E397E090934B0580934A058FEF2B
:101E8000809349058EEE92E0909348058093470534
:101E900081E49AE0909346058093450581E0809324
:101EA000240784E38093270784E180932A078093A3
:101EB0002D0788E38093300790E290933307809357
:101EC000360787E090E00E94B61190932F07809329
:101ED0002E07009709F451C0C7E0FC012C2F119286
:101EE0002A95E9F788E690E00E94B61190932607BC
:101EF00080932507009709F440C028E6FC01119261
:101F00002A95E9F780E590E00E94B61190932907A1
:101F100080932807009789F120E5FC0111922A950A
:101F2000E9F780EA90E00E94B61190932C07809325
:101F30002B07009711F120EAFC0111922A95E9F78D
:101F400087E090E00E94B6119093350780933407A4
:101F5000009799F0FC011192CA95E9F780E490E0AE
:101F60000E94B6119093320780933107009729F0B1
:101F700020E4FC0111922A95E9F7D0E0C0E08E013F
:101F8000000F111F0C54194FF80180819181892B8A
:101F900049F481E090E00E94B611F80191838083BA
:101FA000FC0110822196C833D10549F7C09125075D
:101FB000D0912607E4E7F6E090E080E021913191AE
:101FC000232B39F4DF0112979E01280F391F2D931F
:101FD0003C9302968034910589F710E000E0C80137
:101FE000880F991F9C012C5F394F7901F90180817D
:101FF0009181892B49F481E090E00E94B611F701AC
:1020000091838083FC0110820F5F1F4F08331105FD
:1020100031F72091310730913207E4ECF5E090E0A0
:1020200080E041915191452B39F4DF011297A901CC
:10203000480F591F4D935C9302968034910589F7A0
:10204000ECE9F5E090E080E0C05CDF4F2191319158
:10205000232B39F4DF0112979E01280F391F2D938E
:102060003C9302968832910589F740912807509158
:102070002907E4E7F5E090E080E021913191232BFE
:1020800059F4DF0112979C01220F331F220F331FD7
:10209000240F351F2D933C9301968431910569F7E8
:1020A00040912B0750912C07ECE4F5E090E080E0A4
:1020B00021913191232B61F4DF0112979C0163E0A0
:1020C000220F331F6A95E1F7240F351F2D933C93A0
:1020D00001968431910561F780E29EE4A0E0B0E0D2
:1020E0008093E5079093E607A093E707B093E8078E
:1020F0000E94E5016093E9077093EA078093EB077C
:102100009093EC07C1E00E94E5010091E90710916E
:10211000EA072091EB073091EC07601B710B820BF3
:10212000930B0091E5071091E6072091E7073091A6
:10213000E807601771078207930708F473C080915E
:10214000E0079091E107A091E207B091E3070196C3
:10215000A11DB11D8093E0079093E107A093E207D2
:10216000B093E3078091D70781FD04C08091D40725
:102170008093D6078091DC079091DD07A091DE0760
:10218000B091DF07AC01BD01535D6E4C7E4F411530
:10219000FAEC5F07FAE96F07FBE37F0708F05BC023
:1021A0004093DC075093DD076093DE077093DF07F1
:1021B0000E94B8038091E407811118C0C093E4071E
:1021C0000E94E5010091E5071091E6072091E707DD
:1021D0003091E807601B710B820B930B6093E9074A
:1021E0007093EA078093EB079093EC078091E907DF
:1021F0009091EA07A091EB07B091EC074091E507B9
:102200005091E6076091E7077091E807840F951FEA
:10221000A61FB71F8093E9079093EA07A093EB07E7
:10222000B093EC070E94E5010091E9071091EA07DD
:102230002091EB073091EC07601B710B820B930B25
:10224000603177428105910510F00E94B8038895AE
:102250000E940D0358CF4091D8075091D907609143
:10226000DA077091DB079D59A946BA438093DC07D2
:102270009093DD07A093DE07B093DF074F5F5F4FBA
:102280006F4F7F4F4093D8075093D9076093DA0779
:102290007093DB078DCFE7E3F7E01382128288EEBD
:1022A00093E0A0E0B0E084839583A683B78382E1C6
:1022B00094E09183808385EC90E09587848784EC1B
:1022C00090E09787868780EC90E0918B808B81EC03
:1022D00090E0938B828B82EC90E0958B848B86ECE4
:1022E00090E0978B868B118E128E138E148E08952C
:1022F000EE0FFF1F881F8BBF0790F691E02D1994FA
:10230000002E083090F0982F872F762F652F542FAE
:10231000432F322F22270850F4CF220F331F441FA0
:10232000551F661F771F881F991F0A95B2F7002D4A
:10233000089597FD1094002E083098F00850232F30
:10234000342F452F562F672F782F892F912DF4CFBB
:1023500015949795879577956795579547953795F0
:1023600027950A95AAF71124002D08950F931F931E
:10237000CF93DF938230910510F482E090E0E091FA
:10238000F807F091F90730E020E0B0E0A0E03097E6
:1023900099F42115310509F44AC0281B390B243062
:1023A0003105D8F58A819B816115710589F1FB01A1
:1023B00093838283FE0111C0408151810281138188
:1023C00048175907E0F04817590799F4109761F03A
:1023D00012960C93129713961C933296CF01DF91AD
:1023E000CF911F910F9108950093F8071093F9076B
:1023F000F4CF2115310551F04217530738F0A901E8
:10240000DB019A01BD01DF01F801C1CFEF01F9CF76
:102410009093F9078093F807CDCFFE01E20FF31FE9
:10242000819391932250310939832883D7CF20910A
:10243000F6073091F707232B41F4209102023091E7
:1024400003023093F7072093F607209100023091A2
:1024500001022115310541F42DB73EB74091040228
:1024600050910502241B350BE091F607F091F70718
:10247000E217F307A0F42E1B3F0B2817390778F05B
:10248000AC014E5F5F4F2417350748F04E0F5F1FBA
:102490005093F7074093F607819391939FCFF0E015
:1024A000E0E09CCFCF93DF930097E9F0FC013297F7
:1024B00013821282A091F807B091F907ED0130E084
:1024C00020E01097A1F420813181820F931F209189
:1024D000F6073091F7072817390709F061C0F09324
:1024E000F707E093F607DF91CF910895EA01CE1741
:1024F000DF07E8F54A815B819E0141155105B1F77F
:10250000E901FB83EA8349915991C40FD51FEC1768
:10251000FD0761F4808191810296840F951FE90186
:1025200099838883828193819B838A83F0E0E0E0B2
:1025300012968D919C9113970097B9F52D913C912E
:102540001197CD010296820F931F2091F6073091CB
:10255000F7072817390739F6309751F51092F90720
:102560001092F807B093F707A093F607BCCFD38378
:10257000C28340815181840F951FC817D90761F428
:102580004E5F5F4F88819981480F591F5183408367
:102590008A819B81938382832115310509F0B0CF15
:1025A000F093F907E093F8079ECFFD01DC01C0CF5F
:1025B00013821282D7CFFB01DC0102C001900D9281
:0C25C00041505040D8F70895F894FFCF28
:1025CC000000FA07800000C0C101C30302C2C606A6
:1025DC0007C705C5C404CC0C0DCD0FCFCE0E0ACA4F
:1025EC00CB0BC90908C8D81819D91BDBDA1A1EDE9F
:1025FC00DF1FDD1D1CDC14D4D515D71716D6D2124F
:10260C0013D311D1D010F03031F133F3F23236F65E
:10261C00F737F53534F43CFCFD3DFF3F3EFEFA3A0E
:10262C003BFB39F9F83828E8E929EB2B2AEAEE2E9E
:10263C002FEF2DEDEC2CE42425E527E7E62622E20E
:10264C00E323E12120E0A06061A163A3A26266A65E
:10265C00A767A56564A46CACAD6DAF6F6EAEAA6ACE
:10266C006BAB69A9A86878B8B979BB7B7ABABE7E1E
:10267C007FBF7DBDBC7CB47475B577B7B67672B2CE
:10268C00B373B17170B0509091519353529296565E
:10269C005797559594549C5C5D9D5F9F9E5E5A9A8E
:1026AC009B5B99595898884849894B8B8A4A4E8E1E
:1026BC008F4F8D4D4C8C448485458747468682428E
:1026CC0043834181804000C1814001C0804101C0F1
:1026DC00804100C1814001C0804100C1814000C1E6
:1026EC00814001C0804101C0804100C1814000C1D6
:1026FC00814001C0804100C1814001C0804101C0C6
:10270C00804100C1814001C0804100C1814000C1B5
:10271C00814001C0804100C1814001C0804101C0A5
:10272C00804100C1814000C1814001C0804101C095
:10273C00804100C1814001C0804100C1814000C185
:10274C00814001C0804101C0804100C1814000C175
:10275C00814001C0804100C1814001C0804101C065
:10276C00804100C1814000C1814001C0804101C055
:10277C00804100C1814001C0804100C1814000C145
:10278C00814001C0804100C1814001C0804101C035
:10279C00804100C1814001C0804100C1814000C125
:1027AC00814001C0804101C0804100C1814000C115
:1027BC00814001C0804100C1814001C0804101C005
:1027CC00804100C18140D4070F00D6070F000000E4
:1027DC000000A0020A023702ED02680246025A0209
:1027EC00333564626266353665393034643963304A
:1027FC0038393664653134333433643432313632FB
:02280C000000CA
:00000001FF
